:020000040000FA
:0400000081EF00F09C
:10000800C700C700C700C7004000C70040006E0017
:10001800C200C700C700C700C700C700C700C700A5
:10002800C700400040004000C700C700C700C70025
:10003800C700C700C700C700C700C700C700C70080
:10004800C700C700C700C70040004000C700C7007E
:10005800C700C700C7004000C700C700C700C700E7
:10006800BC00C700C700C700C700C700C700C7005B
:10007800C700C700C700C7004000C700C700C700C7
:10008800C700C700C700C700C700C700C700C70030
:10009800C700C700C700C7004000C70040004000B5
:1000A800A500C700C700C700C700C700C700C70032
:1000B800C700C700C700C700C700C700C700C70000
:1000C800C700C700C700C700C700C700C700C700F0
:1000D800C700C700C700C700C700C700C700C700E0
:1000E8004000C700C700C700400040004000400073
:1000F800C700C700C700C700FF0063EF01F0000E8C
:10010800066E02BE8CEF00F08AEF00F092EF00F06E
:10011800016C021ED8B0022A010E066E04BE99EFC9
:1001280000F097EF00F09DEF00F0036C041ED8B0CC
:10013800042A03500410D8B4A4EF00F0A6EF00F08E
:10014800CAEF00F0010E056EAEEF00F0D89003364E
:100158000436052A04AEB3EF00F0B5EF00F0AAEFBD
:1001680000F00350015C04500258D8A0BEEF00F024
:10017800C0EF00F0C4EF00F00350015E0450025AD3
:10018800D89004320332052EB5EF00F00650D8B4EB
:10019800D0EF00F0D2EF00F0D6EF00F0016C021EB5
:0E01A800D8B0022A01C501F502C502F5120009
:1001B800610060F309F500F004010FA1E6EF00F01B
:1001C800E8EF00F0F0EF00F00F910A50030D610026
:1001D800CCF30AF50DEF01F00FA3F5EF00F0F7EF00
:1001E80000F002EF01F00F930AC508F50834083251
:1001F8000834083208500A6E0DEF01F00FA507EF1A
:1002080001F009EF01F00DEF01F00F950A500A24F3
:100218000A6E610028F4C1F4610024F4D8F41100D6
:1002280000F0000E0401186F000EC96E000EC16EBA
:100238000851C00B086FC7503F09C76E09513F09E5
:10024800096F0F51F80B0F6F0E5107090E6F03015D
:10025800629F9E8E0B0E02013E6F0C0E3F6F0D0EBD
:10026800406FD690D692D69403016381AF909F8059
:100278006881B490A4806C91B890A880D68AD68CF6
:10028800D68E00F045EF01F081EF00F0610060F3D9
:1002980007F500F0B8900A50016E026A01BE020626
:1002A800000E046E0A0E036E83EC00F001500A6E15
:1002B800610028F4C1F461001CF4D8F41100200E88
:1002C800F66E030EF76E000EF86E09006100D4F3A7
:1002D8000AF50401080E5D6F000E5E6F000E5F6F79
:0602E800000114EF01F01B
:1002F00000F0B4900A50050D6100CCF30AF56100DE
:0603000028F4C1F4110015
:1003080000F0AF900A500C0F0A6E610028F4C1F497
:020318001100D2
:05031C0000F0110014C7
:020000040020DA
:10000000FF0FFF0FFF0FFF0FFF0FFF0FFF0FFF0F80
:10001000FF0FFF0FFF0FFF0FFF0FFF0FFF0FFF0F70
:020000040030CA
:0A0000008CD73FDF9FFFFFFFFFFFDB
:00000001FF
